:040000006F008056B7
:1000040000000000000000008002000082020000E6
:100014000000000066050000000000000000000071
:1000240066050000660500000000000000000000F6
:1000340066050000000000006605000000000000E6
:100044006605000066050000660500006605000000
:1000540066050000660500006605000066050000F0
:1000640066050000660500006605000066050000E0
:1000740066050000660500006605000066050000D0
:1000840066050000660500006605000066050000C0
:1000940066050000660500006605000066050000B0
:1000A40066050000660500006605000066050000A0
:1000B4006605000066050000660500006605000090
:1000C4006605000066050000660500006605000080
:1000D4006605000066050000660500006605000070
:1000E4006605000066050000660500006605000060
:1000F4006605000066050000660500006605000050
:1001040000000000660500006605000066050000AA
:10011400660500006605000066050000660500002F
:10012400660500006605000066050000660500001F
:10013400660500006605000066050000660500000F
:1001440066050000660500006605000066050000FF
:1001540066050000660500006605000066050000EF
:1001640066050000660500006605000066050000DF
:1001740066050000660500006605000066050000CF
:1001840066050000660500006605000066050000BF
:1001940066050000660500006605000066050000AF
:1001A400000000000000000000000000000000004B
:0C01B4000000000000000000000000003F
:1001C000397101436EC619A0397141536AC866CAB4
:1001D00062CC5ECE19A0397101535AD056D252D496
:1001E0004ED64AD826DA22DC06DE3301614082820E
:1001F00041114AC026C222C406C68282B24D4101C4
:10020000024D924C224CB24B4101024B924A224A7F
:10021000B2494101024992442244B24041018280E4
:100220002A8309CA83830500230073007D16050312
:1002300085056DFA828015C22A8385466367B500FD
:10024000FD561307F6FF3A93BA9583830500230002
:1002500073007D163693B6956DFA82802A8311C697
:100260002300B3007D16050365FE828010219421D2
:10027000050585056313D60075FA3305D6408280DF
:1002800001A001A0EFF2DFF6011109453D29D122BD
:10029000AD2571651305052071259705002083A5FF
:1002A000250217F5020013056513EF30627F992EC2
:1002B000AA8517F5020013056513EF30627E17F566
:1002C00002001305A513EF30F21E040897F5020093
:1002D000938545142D46268526C49937AD4797F555
:1002E00002009385E513138581183EC6A30D010016
:1002F000EF405134970700209387C7008C43D043C9
:10030000EF405137EF40D1002C0013854121EF0021
:10031000905A2C0013858118EF50616CEF40417F9B
:1003200001A02A84224563059500C2458505452D17
:100330002285EF000277EFF2BFEB1385819FEF007C
:10034000F03F138681D39385819F17150000130515
:10035000E5CFEF10D2167DBDB71702409843B70620
:10036000FFF041111367170098C3D8433706020006
:10037000758FD8C39843B706F7FEFD16758F98C3DF
:100380009843B706FCFFFD16758F98C3D843B70690
:1003900001FFFD16758FD8C39843B70600ECFD1614
:1003A000758F98C33707FF0098C723A6070202C4BA
:1003B00002C69843C166558F98C3B71602400567B9
:1003C0009C42F18F3EC6A24785073EC4B24781E7F3
:1003D000A247E397E7FEB71702409C4337070200A6
:1003E000F98FB5C785473EC632478547631FF70477
:1003F000B7170240D843B706C1FFFD16D8C3D8438C
:10040000D8C3D84313670740D8C3D843758FD8C320
:10041000D843B7062900558FD8C39843B7060001C3
:10042000558F98C3B70600029843758F75DFD84380
:10043000B7160240719BD8C3D84313672700D8C3AF
:100440002147DC42B18BE39EE7FE4101828002C678
:1004500061BF371702405C43A14617060020130610
:1004600026E6B18B6387D702B7177A0093870720F8
:100470001CC2B7170240DC4317070020130787B8D8
:100480009183BD8BBA9798231C42B3D7E7001CC257
:1004900082805C4354434167C983BD8BF98E1387C7
:1004A00027009DCBBD47630BF702C147630BF702E3
:1004B000C547630BF7028145A1E2B747024083A716
:1004C0000780C18B8DC7B7177A0093870720330742
:1004D000F702C1E918C271BF4947F1BF85453547E9
:1004E000E1BF81453D47C9BF81454147F1B7B717D6
:1004F0003D0093870790E1BF371502405C55C16608
:10050000F58F5455A1CB9182BD8AB7177A00850625
:1005100093870720B3D7D7025455A182BD8A89EEAD
:100520009546B387D7028583B7160240D456BD8A55
:100530008506B3D7D70261BF05456394A600E5469B
:10054000CDB73D456396A600D146B387F602E9BF15
:100550008906E5BFBD8AB7177A008506938707200D
:10056000C9BF058385BF01A0970100209381015574
:1005700017810020130101A917550300130505C9B0
:1005800097050020938505A81386C19C63FAC500D2
:100590008322050023A0550011059105E3EAC5FE5D
:1005A0001385819F97250020938585846377B50007
:1005B000232005001105E36DB5FEFD42739002BCDA
:1005C000AD427390428099629382820873900230A8
:1005D00097020000938242A393E23200739052305C
:1005E00017250200130545ADEF10C261EF20E210A0
:1005F000EFF09FD697020000938202C973901234E5
:1006000073002030B7F7FF1F03A5477082809C4519
:1006100013F7070113F8F70001C7D8413368E80062
:100620008E2113F7F50F31C318418146054E930E05
:1006300080023D4F930F800421433316DE00B3F850
:10064000C50063101603639AD70750C91396260096
:10065000B318CF0093C8F8FF33F7E8003316C8008B
:10066000518F8506E39B66FC18C11307F00F637575
:10067000B70454410146054E930E8002130F8004C7
:100680002143130786003317EE00B3F8E50063112A
:1006900017036398D70358C9931826003D473317AB
:1006A00017011347F7FFF98EB3181801B3E6D80006
:1006B0000506E31866FC54C18280E399F7F910C976
:1006C00071B7E39BE7FD18C9C1BF23AEA19E82802D
:1006D000371702405C43A146B18B6383D706B71737
:1006E0007A00938707201CC1371602405C429706A8
:1006F0000020938626929183BD8BB69798231C4148
:10070000B3D7E7005CC1584221831D8B369718236D
:1007100033D7E70018C558422D831D8BBA9698220F
:1007200097060020938606BAB3D7E7005CC5584207
:1007300039830D8B36971823B3D7E7021CC9828003
:100740005C435843C166C983758FB7F6FF1F03A684
:10075000C6709166BD8BF18E890795E6C546014648
:100760006393D700C94731EF37470240032707801B
:10077000418B39C337177A0013070720B387E70285
:100780003DD285838DB78946638DD700BD46638C86
:10079000D700C146638CD700C546638CD70001469D
:1007A000D9B7C947EDBF0546B54775BF0146BD4737
:1007B0005DBF0146C14745BF37173D00130707908E
:1007C00075BFB7150240D855C166758FD45521CB7A
:1007D0009182BD8A37177A008506130707203357A1
:1007E000D702D455A182BD8A89EE95463307D70238
:1007F0000583B7160240D456BD8A85063357D70203
:10080000B5BF85456394B600E546CDB7BD45639653
:10081000B600D1463387E602E9BF8906E5BFBD8A47
:1008200037177A00850613070720C9BF99C5371700
:1008300002401C4FC98F1CCF8280B7170240984FCF
:100840001345F5FF798D88CF8280EFF27F9A1629C4
:10085000F577FD17FD8EFE21DA250111D58F1EA932
:100860005625FD779387379FFD8EDE212A84AE843F
:10087000D58F9625D58FB625D58F5EA55E29C20763
:10088000C18393F7F7CFD98F5EA968009135B74739
:10089000014093870780631DF402E2476547B387F1
:1008A000E7029840930640060A07B3D7E70233D71A
:1008B000D702B3F7D7021207920793872703B3D75C
:1008C000D702BD8BD98FC207C1831EA4056199B21F
:1008D000D247E9B75E2589C50967D98F5EA58280B1
:1008E00079777D17F98FDDBF93F5F51F4EA18280D3
:1008F0000A216D8D3335A000828037177A001307E7
:1009000007209707002083A7A79BB3D7E70293F799
:10091000F70F2381F1A01307803EB387E7022390EE
:10092000F1A08280EFF2DF8C2A84116501118545E8
:100930001105ED3D930700207C82371501408D475E
:100940003EC44C00E147130505803EC6C93122C8AC
:1009500037440140B70708000C08130504803ECC5B
:1009600002CA231E0100D5358545130504809D3735
:1009700005616FF03F8AEFF21F8637490140AE896B
:10098000328481441309098063C5840022856FF095
:10099000DF87930500044A85A13F65DDB387990091
:1009A000838507004A858504C205C181353FE9BFBB
:1009B0001387C180AA870843971600209386464371
:1009C000AA9763EAD700977600209386A6E363E4AC
:1009D000F6001CC382807D558280828082806FB049
:1009E000B113014781461C21050513F6F707E207FD
:1009F0003316D600E187518F9D06E3C607FE98C1E6
:100A00008280814701471421050513F6F607331646
:100A1000E600D18F1396860161861D07E34506FE29
:100A20007D466369E60093F6060489C6FD56339752
:100A3000E600D98F9CC182801C42797122D43ECEBF
:100A40009C4126D22EC69C4706D6AA842E85328487
:100A50008297B24501C5F2479C433ECE9C408546F5
:100A600070089C4B2685829719C1F2471CC0B25072
:100A70002254925445618280797126D24AD006D69A
:100A800022D44ECE930700053289B684631FF50049
:100A90001305360071991C411105B25022549CC0B7
:100AA00002599254F249456182809377F5003147AB
:100AB000AA89636BF70817F70200130767978A077D
:100AC000BA979C432E84BA9782876C003285113F77
:100AD000B247E1D713F70907C1466313D7004A8429
:100AE000E20993D98941A297E3D909FA9C4375B7E2
:100AF0006C0032853937E9BF1C321822A207D98F22
:100B000013052900F9B71C321822A207D98FC20792
:100B1000C187FDB71C32182213054600A207D98FE2
:100B2000382242075D8F3C32E207D98F5DB71C3215
:100B3000182213058600A207D98F382242075D8F3D
:100B40003C32E207D98F71B7EF10C20A011106CE0D
:100B5000AA8748291307F00F630FE5029376750003
:100B60000947638CE6026366D700114791CAEF100C
:100B700062080D476385E60211462147E399C6FEE8
:100B8000B385E502D04774000D8E8C47F535F240F1
:100B90003245056182800147E5B70947D5B711475E
:100BA000C5B71307F00FAA87630DE50293F7070790
:100BB000130700032E85638AE702636CF7001307AF
:100BC00000026382E702637EF700411106C6EF1060
:100BD000620213070004638CE70013070005E39625
:100BE000E7FE014582806FF0516B6FF0B16A6FF0E4
:100BF000116A011122CC2E84AA85228506CE32C626
:100C000036C44537AA8522856244A2463246F24060
:100C100005619DB5011122CC26CA4AC806CEAA8418
:100C20002E893284814701C5EFF07166AA871CC006
:100C3000834509001307F00F130619006383E504C9
:100C400093064400268575372A8618229306F00FEE
:100C50001305160058A881476306D7006C0051336E
:100C6000B247AA975CC41C216C0005055CB8953B93
:100C7000B247F240D244AA971CC862444249056177
:100C800082805CC0D9B719713EC486DEA2DCA6DAC8
:100C9000CAD8CED6D2D4D6D2DAD0DECEE2CCE6CA0C
:100CA000EAC8EEC602C802CA85476319F52497F759
:100CB000FF1F9387A76583AB0700DC432E84B29B9D
:100CC000BE9633B6CB009947BA843309D6006391F8
:100CD000F502631F0900636D7501032B47FF032AAB
:100CE00087FE032C07FF63180B1A2685EFB0016FF0
:100CF0002245EFF071592A8C59C9AA852245301036
:100D0000113FA2452AC60345C103613D2AD82245A9
:100D10004C08EFF03156D24732462A8A99E3130A3B
:100D2000F5FFE25A636E5601937714006392071A37
:100D3000218811E4631509008547E3F877FBF12A60
:100D40008345D103340801452EC66535B2452A8650
:100D500074080145793DB2452A8614100145513D7C
:100D60004C104131A25762472A86BA976366FA0649
:100D70007247BA97E377FAFA025B925763090B005E
:100D800032573A9B8DC7FD17BE9A63190B04214554
:100D9000F6506654D6544659B659265A965A065BAA
:100DA000F64B664CD64C464DB64D09618280E30049
:100DB0000BFE058869FC014A22452686A945EFF00D
:100DC000D14622455286AD45EFF031462245DA85BF
:100DD000EFF0314B1D456DBF5686A1B7137D8400E2
:100DE000938C419963110D02631E0904854763EBDF
:100DF0007705982093870402058B19C383A704FD08
:100E000083AC07FB3EC8814D2C085685DD3E6C083F
:100E1000AA89C53E624A630B0A0A63584003D28519
:100E200028102D3319C5638E0C041008E68529316E
:100E300029C905884DE0E3110DF8630B0904E35D52
:100E40000AF6CD28938CC1997DBFD2571347FAFF7C
:100E5000BA9763830C0663110D06631F09040547E7
:100E6000636C770542473AD04C103E859D3E9255C3
:100E70002AC689CD2810D9391010E685753EB247AB
:100E800065D5F24A638E0A06CE9ABDBF058829E869
:100E90008547E3E677FBE3510AF222453010E2850D
:100EA000953B0344C103A2452285E539A24522852D
:100EB000CD3923AAA4FE09B73E854C101D369257A2
:100EC000E9F3058809E8E31E0DF685BF854D55BF9A
:100ED000014A014B814A63110902854763EE77019C
:100EE000C247938404F823A4440723A6540723A8E5
:100EF0008407BCDC23AA6407194559BD0D4549BDCB
:100F0000E3990DEA69B5411106C60295EF00924ECC
:100F100003A581810F00F00F8280411106C6CD3FED
:100F2000DD37411106C60295CD3F03A501810F00B3
:100F3000F00F8280411106C6CD3FE537411126C230
:100F4000938481BB9C4006C622C44AC01387170005
:100F500098C06395070E138441838547238AF180E7
:100F60001C40138541E009698C47EFD0A0061C4066
:100F70001385C1DDCC43EFD0E0051C40138541DB78
:100F8000CC47EFD02005938541E013858118EF30E1
:100F900091199385C1DD13854121EFD0C047938519
:100FA00041DB1385C10FEF301118938541DB1385A9
:100FB0000107EF3051179386811823A6D128938714
:100FC000C10F984BF4DB1385C1D83367270198CB49
:100FD0001C408C47EFD0A0021C40138541D6CC4367
:100FE000EFD0E0011C401385C1D3CC47EFD02001E6
:100FF0009385C1D81385C1F4EF301137938541D65D
:101000001385C1FDEFD0605B9385C1D31385C1EB20
:10101000EF3091359385C1D31385C1E2EF30D134E0
:101020009386C1F423AAD1049387C1EB984BF4DBD8
:101030003367270198CB9C4085079CC0B24022446F
:101040009244024941018280138781BB1C439386ED
:10105000F7FF14C30947639EE70241111385811806
:1010600006C6EF30D11B1385C10FEF30511B13851E
:101070000107EF30D11A1385C1F4EF30513E1385CB
:10108000C1EBEF30D13DB2401385C1E241016F3079
:10109000113D82805841B7070040FD17998F63FAD0
:1010A000C700411117E502001305C53B06C6EFC096
:1010B000B0796F40C170397122DC52D42A842E8AF3
:1010C0000146AA85280006DE26DA4AD84ED656D230
:1010D0005AD05ECE62CCEFD0203F1C8489E7814598
:1010E00093E5450019AA83270A0023220A002380DA
:1010F00007001C4083A547FFA29503AC850063450C
:101100008001370C00407D1C9385C5066800212AAC
:101110006800EFE0C009AA8A680039241C408144B5
:1011200083A747FFA29783A987074E85EF40610FEA
:10113000FD576302F504054BFD5B83A68A01937797
:10114000F50FB6979C23A18BADEF83A5890083A7EC
:10115000C90033079C408D8F6353F700BA876344FF
:10116000FB029375F50F5285EF40A13D4E85850436
:10117000EF40410C99A01C4083A747FFA29723A4EE
:1011800007008945B1BF13861500AE976379F60055
:10119000182236971823218B19E30506C5BF33099A
:1011A000B64052854A86FD3583A789004E85CA948C
:1011B000CA9723A4F900EF40C10663F48401E31E3B
:1011C00075F71C4083A747FFA29763E1840323A41C
:1011D0000700F25022856254D2544259B259225A21
:1011E000925A025BF24B624C216182807D5723A4AC
:1011F0000700631BE5008945C9D41C4003A547FFD0
:101200002295EFC0706DF1B7E38B04ECD9B7828003
:1012100058419306F7FF54C185466315D7001C411A
:10122000DC43828782809C4103A701A11CC16385A6
:10123000E7009843050798C382800CC1828001466D
:101240009385C191138581A06FB0513E411122C495
:10125000138481A01C4006C691E3D5370840B240F4
:101260002244410182801385C19182805C414111F9
:1012700022C426C206C64AC02A8481449DEB484047
:1012800015ED5C448144A9E7484421E91C488144A8
:101290006149B9E7084839EDB24022449244024915
:1012A0004101828013972400BA97884311C18D377A
:1012B000850418445C40E3E7E4FED1B7EFB00106D3
:1012C000C9B713972400BA97884311C19137850491
:1012D00018445C44E3E7E4FE45BFEFB021047DB76A
:1012E0001C48A697884319C1EFB041039104E399C4
:1012F00024FF4DB72244B2409244024941016FB0ED
:10130000E1011C411387F7FF18C10547639DE70002
:10131000411122C406C62A84913F22852244B2404C
:1013200041016FA0717F8280084183A701A16303FF
:10133000F500C1BF82809C41411122C426C206C66D
:1013400083A601A12A84AE846385D700984305074C
:1013500098C308406383A6006D379C40B240228545
:101360001CC022449244410182801C4199E71387AA
:1013700041A01C4385071CC31CC108417D15828008
:101380006301061A397122DC2A842E8526DA4AD8AE
:1013900006DE4ED652D456D25AD05ECE3289F137BE
:1013A0001C44AA84FD1763FBA708130B4500B7076D
:1013B0000020032A4400FD596374FB0093192B009D
:1013C0004E85EFB0A1131C44AA8A0147139527004C
:1013D0006318A70A01466367FB00B387F4409107CF
:1013E0001396270081455695EFE05FE74E85832BE6
:1013F000C400EFB0A1101C44AA890147139527002F
:101400006318A70801466367FB00B387F4409107A0
:101410001396270081454E95EFE05FE42324640195
:10142000232254012326340163050A005285EFA0CC
:10143000F16E63850B005E85EFA0516E8327490036
:10144000032B4400939924008507DA992322F9009D
:1014500083A7090017EA0200130A8A03A5E723A05D
:10146000290181441C4463E1F40AF2506254D254CD
:101470004259B259225A925A025BF24B2161828040
:101480005440BA969042B386EA00110790C289B7D9
:101490005444BA969042B386E900110790C28DB7C2
:1014A00003254A00D935639EA40056857D3D9314DB
:1014B0002500DA949C40A9C7D6854A85EF300031D3
:1014C00005A8210A832A0A00638C0A025685713D09
:1014D000E398A4FC83254A002E852EC67935931403
:1014E0002500DA949C4089CFB2454A85EF90001CD4
:1014F0005C412A8A85075CC18840193B23A04401CE
:1015000003A509003133A1BF5C4413992400CA9795
:10151000884311C5F5395C44CA9723A007008504A8
:1015200091B7828001114EC6AA89138581A122CC70
:1015300026CA06CE4AC852C4AE843284EFA0D17601
:1015400009C5138581A1EFA0917717E9020013095E
:1015500029F4032A090063140A00FD5709A85285DB
:10156000293563188502032549000135AA8703A799
:10157000C9000A043A9414408DCAA9C49C4062442C
:10158000F2404249B249224ADC432685D2440561F1
:10159000828703254900D13B631785005285F133CB
:1015A000A2872A84E9B721096DB7D44013861600B3
:1015B000D0C004C07D566387C70089068A07D4C09F
:1015C0003E9704C3F2406244D2444249B249224A9F
:1015D000056182804111138581AA06C6EFA0D16CF6
:1015E00019C5B240138581AA41016FA0516DB24067
:1015F000410182805D7186C6A2C4A6C2CAC04EDE09
:1016000052DC56DA5AD85ED662D466D2930700030B
:101610001CC597070020938727452A890CC113060C
:10162000000C81453E85EFE07FC39707002093873C
:10163000A7372322A9001306000C81453E85EFE061
:10164000FFC1970700209387274F23A0070023A2FD
:10165000070023A4070023A6070023A80700970775
:1016600000209387274D170400201304E44B232800
:10167000F9002326A90080C3FD361C2185460146BA
:101680001CA01C318145170500201305E50F1CB077
:10169000EF40703A170600201306060F4A8593851F
:1016A00041AFF9398545170500201305A50BEFB0AB
:1016B00051064A85170600201306C60A938501CFF6
:1016C000C131938C416C854997E70200938787FC71
:1016D000E6850546170500201305850923A0FC00B3
:1016E00023A23C0123A40C0023A60C0023880C0099
:1016F00023AA0C0023AC0C0023AE0C0023A00C0288
:1017000023920C0223820C06EF5070214A851706A3
:1017100000201306E605938541B49D31138681A907
:1017200097070300938747724A859385C1C4232294
:1017300036011CC2B131138601A9970703009387B4
:1017400067744A85938581C41CC2232236010D39F2
:1017500085451705002013056502EF50302F4A8597
:101760001706002013068601938581B31139938BE8
:10177000C16397E702009387A7E6DE850546170554
:1017800000201305A5FC23A0FB0023A23B0123A4FA
:101790000B0023A60B0023980B0023890B0023AA20
:1017A0000B0023AC0B0023AE0B0023A00B0223A2E3
:1017B0000B0223A40B0223A60B0223A80B0223AACD
:1017C0000B02A3810B04EF5090014A8517060020FD
:1017D0001306C6F79385C1B46536138B016897E786
:1017E00002009387E7DEDA8505461705002013051A
:1017F000A5F62320FB0023223B0123240B002326F4
:101800000B0023180B0023090B00232A0B00232CA9
:101810000B00232E0B0023200B0223220B02232478
:101820000B0223260B0223280B02232A0B02A301FF
:101830000B04EF50D0044A85170600201306C6F1AA
:10184000938581B4EFF0DFB3138681A897F7020088
:10185000938747184A85938541B5232236011CC2D8
:10186000EFF01FB2138601A897F7020093870718BD
:101870004A85938501B5232236011CC2EFF05FB083
:1018800093844157970703009387C7629CC023A2A4
:101890003401A68523A4040023A6040023A8040081
:1018A00023AA040023AC040023AE040023A00402F6
:1018B00023A2040223A4040223A6040223A80402F0
:1018C00023AA040223AC040223AE040223A00404CE
:1018D00023A2040423A4040423A6040423A80404C8
:1018E00023AA040423AC040423AE040423A00406A6
:1018F00023A2040623A4040623A6040623A80406A0
:1019000023AA040623AC040623AE040605461705E5
:101910000020130565E223A0040823A2040823A4E1
:10192000040823A6040823A8040823AA040823AC57
:10193000040823AE040823A0040A23A2040A23A453
:10194000040A23A6040A23A8040A23AA040A23AC2F
:10195000040A23AE040A23A0040C2382040CEFD053
:10196000C0634A8517060020130606DD938501C370
:10197000EFF01FA1138681A797F7020093878708CE
:101980004A85938501B4232236011CC2EFF05F9F84
:101990009707030093870762138601A74A859385FB
:1019A000C1C21CC223223601EFF09F9D8545170559
:1019B0000020130565D7EF5090041706002013068A
:1019C000A6D64A859385C1B3EFF09F9B8545170541
:1019D000002013056587EF4050031706002013060B
:1019E000A6864A85938501AFEFF09F9985451385BB
:1019F0008176EFB061544A85138681769385C1CE96
:101A0000EFF01F98138CC14497E70200938787C9B2
:101A1000E2850546138541772320FC0023223C0103
:101A200023240C0023260C0023080C00232A0C007E
:101A3000232C0C00232E0C0023200C0223220C024A
:101A400023240C0223020C12EF90D0674A851386E0
:101A50004177938541BAEFF0BF92138681A697171D
:101A60000300938767CD4A859385C1CD2322360134
:101A70001CC2EFF0FF90138601A69717030093870F
:101A800067CF4A85938581CD1CC223223601EFF0B2
:101A90003F8F854513850178EF90B0754A85138691
:101AA0000178938581B9EFF0BF8D938AC13697E7AE
:101AB00002009387E7B4D68505461385017523A0F8
:101AC000FA0023A23A0123A40A0023A60A002388CD
:101AD0000A0023AA0A0023AC0A0023AE0A0023A0AE
:101AE0000A0223A20A0223A40A0223A60A0223A8A6
:101AF0000A0223AA0A0223AC0A0223AE0A022386A0
:101B00000A06EF9030484A85138601759385C1BA5D
:101B1000EFF01F87138AC13D97E70200938747AD17
:101B2000D28505461385C1752320FA0023223A0188
:101B300023240A0023260A0023080A00232A0A0075
:101B4000232C0A00232E0A0023200A0223220A0241
:101B500023240A0223260A0223280A02232A0A022D
:101B6000232C0A02232E0A0223060A06EF90904B2A
:101B70004A851386C175938581BAEFF07F801386FD
:101B800081A597070300938727AF4A85938541BBBB
:101B9000232236011CC2EFF0AFFE138601A5970782
:101BA00003009387E7AE4A85938501BB2322360164
:101BB0001CC2EFF0EFFC1384412A971703009387B0
:101BC00067BE1CC023223401A285232404002326DF
:101BD000040023280400232A0400232C0400232EBD
:101BE00004002320040223220402232404022326C7
:101BF000040223280402232A0402232C0402232E95
:101C0000040223200404232204042324040423269E
:101C1000040423280404232A0404232C0404232E6C
:101C20000404232004062322040623240406232676
:101C3000040623280406232A0406232C0406232E44
:101C4000040605461385C1732320040823220408D3
:101C5000232404082326040823280408232A04082C
:101C6000232C0408232E04082320040A2322040A18
:101C70002324040A2326040A2328040A232A040A04
:101C8000232C040A232E040A2320040C2302040C10
:101C9000EF4041654A851386C173938501CCEFF00F
:101CA0002FEE138681A4970703009387E79F4A8549
:101CB000938501BA232236011CC2EFF06FEC138624
:101CC00001A4971703009387E7BD4A859385C1CB8D
:101CD0001CC223223601EFF0AFEA85451385C1729D
:101CE000EF90504C4A851386C1729385C1B9EFF0CD
:101CF0002FE9138681A397E702009387A7C64A8539
:101D00009385C1AB232236011CC2EFF06FE7138627
:101D100001A397E702009387A7C74A85938581AB04
:101D2000232236011CC2EFF0AFE5138681A297E7AC
:101D300002009387A7C84A85938541AB23223601C9
:101D40001CC2EFF0EFE3138601A297E7020093872E
:101D5000A7C94A85938501AB232236011CC2EFF047
:101D60002FE22C004A8566C45EC65AC862CA56CCA9
:101D700052CEEF10405B138541B48329C900EFF0C8
:101D8000CFDE0A05AA9923A099011385C1B483293E
:101D9000C900EFF08FDD0A05AA9923A07901138508
:101DA00081B48329C900EFF04FDC0A05AA9923A06A
:101DB0006901138501C38329C900EFF00FDB0A0510
:101DC000AA9923A09900138541BA8324C900EFF092
:101DD000CFD90A05AA9423A084011385C1BA83240C
:101DE000C900EFF08FD80A05AA9423A054011385E7
:101DF00081BA8324C900EFF04FD70A05AA9423A023
:101E00004401138501CC8324C900EFF00FD60A05E5
:101E1000AA9480C0B640264496440649F259625AB4
:101E2000D25A425BB25B225C925C6161828041115A
:101E300022C4138401A11C4006C695E789451705F5
:101E400000201305A5D0EFF0EFFA97050020938549
:101E5000E5CF0CC02244B24023A6B1A0138501AA4D
:101E600041016FF08FBDB24022444101828083A7BF
:101E700001A191E36DBF828041112320050022C49E
:101E800026C22A8406C69384C1A0D5379C4003A7E6
:101E900001A11CC06389E700EFF0CFF39C40984399
:101EA0001CC0050798C3B24022449244410182807D
:101EB000411122C497D702009387877106C61CC1BF
:101EC000834735042A848DC3084519C1EFA0014515
:101ED000484819C1EFA08144484C19C1EFA0014402
:101EE000485019C1EFA0814322852244B2404101EC
:101EF0006FF0EFB1411122C406C62A84553F2285F6
:101F00002244B24041016FA02141411122C497D720
:101F100002009387E76C06C61CC1834735042A84F8
:101F20008DC3084519C1EFA0613F484819C1EFA012
:101F3000E13E484C19C1EFA0613E485019C1EFA0E5
:101F4000E13D22852244B24041016FF04FAC411186
:101F500022C406C62A84553F22852244B24041014C
:101F60006FA0813B411122C497D702009387476835
:101F700006C61CC18347C5062A848DC3084519C1FE
:101F8000EFA0C139484C19C1EFA04139485019C1DF
:101F9000EFA0C138485419C1EFA04138228522442E
:101FA000B24041016FF0AFA6411122C406C62A8497
:101FB000553F22852244B24041016FA0E1354111D5
:101FC00022C497D702009387A76306C61CC1834724
:101FD000C5062A848DC3084519C1EFA02134484C99
:101FE00019C1EFA0A133485019C1EFA021334854C3
:101FF00019C1EFA0A13222852244B24041016FF005
:102000000FA1411122C406C62A84553F22852244CD
:10201000B24041016FA041301C45411122C406C6A7
:102020002A84A9EB13054004EFA0A14A97D7020028
:102030009387075A1CC12322050023240500232669
:1020400005002318050023090500232A0500232C79
:102050000500232E05002320050223220502232448
:1020600005022326050223280502232A0502A301CF
:10207000050408C41C441307E002114698BB1C4425
:102080001307C0029385019BB8AB084417370300C0
:10209000130707E018C558C958CD58D123260500A5
:1020A000232C0500232005022324050223260502F4
:1020B00013050503EFE0CF9608449385019B114675
:1020C00013054503EFE0CF9583A541828147AD46D7
:1020D00018443386F50010223E978507230CC7026B
:1020E000E398D7FEB2402244410182801C45411151
:1020F00022C406C62A84A9EB13054004EFA0613D63
:1021000097D702009387C74D1CC1232205002324C3
:102110000500232605002318050023090500232AAE
:102120000500232C0500232E050023200502232271
:102130000502232405022326050223280502232A5B
:102140000502A301050408C41C441307E00211465C
:1021500098BB1C441307C0029385019BB8AB08448D
:10216000173703001307C7D218C558C958CD58D11F
:1021700023260500232C0500232005022324050225
:102180002326050213050503EFE08F890844938594
:10219000019B114613054503EFE08F8883A541821B
:1021A0008147AD4618443386F50010223E978507D7
:1021B000230CC702E398D7FEB2402244410182803B
:1021C000411122C406C6970703009387A7D02A842B
:1021D0001CC1084501C51C41DC438297228522446D
:1021E000B24041016FF0AF82411122C406C62A8479
:1021F000C13F22852244B24041016FA0E11141114B
:1022000022C406C697070300938707D02A841CC1FF
:10221000084501C51C41DC43829722852244B24017
:1022200041016FE0DFFE411122C406C62A84C13F8E
:1022300022852244B24041016FA0010E1C4541118C
:1022400022C406C62A84B9EB13050007EFA0612853
:1022500097D702009387C739232205001CC1232486
:1022600005002326050023080500232A0500232C4A
:102270000500232E05002320050223220502232426
:1022800005022326050223280502232A0502232C02
:102290000502232E05022306050608C40844130779
:1022A000E002114658C91307C00218CD17370300C2
:1022B000130707BE18C517370300130767D358CD98
:1022C00058D158D5232605002320050223240502D2
:1022D00023280502232A05029385019B1305850304
:1022E000EFD01FF408449385019B11461305C503E5
:1022F000EFD01FF31C4483A5418201479387070455
:10230000AD463386E5001022050790C39107E31A16
:10231000D7FEB2402244410182801C45411122C4B3
:1023200006C62A84B9EB13050007EFA0811A97D7D8
:1023300002009387E72C232205001CC123240500FB
:102340002326050023080500232A0500232C050069
:10235000232E050023200502232205022324050243
:102360002326050223280502232A0502232C050221
:10237000232E05022306050608C408441307E002BD
:10238000114658C91307C00218CD173703001307A9
:1023900027B018C517370300130787C558CD58D184
:1023A00058D52326050023200502232405022328CF
:1023B0000502232A05029385019B13058503EFD0AF
:1023C0003FE608449385019B11461305C503EFD0F2
:1023D0003FE51C4483A54182014793870704AD462E
:1023E0003386E5001022050790C39107E31AD7FE54
:1023F000B240224441018280411122C406C697079F
:1024000003009387273C2A841CC1084501C51C4151
:10241000DC43829722852244B24041016FE03FDFD6
:10242000411122C406C62A84C13F22852244B240FB
:1024300041016F90716E411122C406C697070300D7
:102440009387873B2A841CC1084501C51C41DC4396
:10245000829722852244B24041016FE05FDB411147
:1024600022C406C62A84C13F22852244B2404101CB
:102470006F90916A411122C497D7020093878721F8
:1024800006C61CC1834745062A8489CF084519C161
:10249000EF90D168484819C1EF905168484C19C174
:1024A000EF90D16722852244B24041016FE03FD6D0
:1024B000411122C406C62A84753F22852244B240B7
:1024C00041016F907165411122C497D70200938733
:1024D000671D06C61CC1834745122A8489CF08455B
:1024E00019C1EF90B163484819C1EF903163484C6E
:1024F00019C1EF90B16222852244B24041016FE0E0
:102500001FD1411122C406C62A84753F2285224468
:10251000B24041016F9051601C45411122C406C672
:102520002A849DEF13058006EF90B17A97D70200B9
:1025300093874716232205001CC123240500232668
:10254000050023080500232A0500232C0500232E5F
:10255000050023200502231205022302050608C4F4
:102560001C44173703001307A79283A5C18198C79E
:102570001307E0022382E70223A60700238807004F
:102580001C441307C00293064002A382E70281475E
:1025900018443386F50010223E9785072303C702AF
:1025A000E398D7FE83A501828147E9461844338624
:1025B000F50010223E9785072305C704E398D7FE50
:1025C0001C4417D7020013072704B240D8CB114789
:1025D000224498CF17D7020013078703D8CF154797
:1025E00098D341018280411122C406C69707030097
:1025F000938747832A841CC1084501C51C41DC43DD
:10260000829722852244B24041016FE05FC04111B0
:1026100022C406C62A84C13F22852244B240410119
:102620006F90914F1C45411122C406C62A84A9E32C
:1026300013058012EF90F16997D702009387870600
:10264000232205001CC1232405002326050023089E
:102650000500232A0500232C0500232E0500232036
:10266000050223220502232405022302051208C4C1
:102670001C44173703001307A78103A5C18198C71E
:102680001307E002D8D31307C00298D723A6070088
:10269000238807009386C702014713064002B3054B
:1026A000E5008C2105078CC29106E31AC7FE03A53D
:1026B00001829386C70B01476946B305E5008C216B
:1026C00005078CC29106E31AC7FE17D7020013074D
:1026D000A7F4D8CB1147B240224498CF17D70200B5
:1026E0001307C7F4D8CF154798D341018280411111
:1026F00022C406C6970703009387C7012A841CC11A
:10270000084501C51C41DC43829722852244B24022
:1027100041016FE0DFAF411122C406C62A84C13FE8
:1027200022852244B24041016F90113F10C30D45F4
:10273000828001458280014582801145828010C3DC
:102740000D4582809307F007AA8663EDB7001C4110
:10275000584101456307F7001387170098C28CA3FF
:10276000054582809307F07F63EAB7021C41584118
:10277000054601451D8FE376E6FE1387170098C2D4
:1027800013D76500130707FC98A39C4293F5F50344
:10279000938505F81387170098C2D1B7C16763FC0A
:1027A000F5021C415841094601451D8FE37BE6FABD
:1027B0001387170098C213D7C500011798A3984232
:1027C000930717009CC293D7650093F7F70393878D
:1027D00007F81CA35DBFB70711000145E3F3F5F847
:1027E0009C42D8420D461D8FE37DE6F61387170005
:1027F00098C213D72501411798A398429307170051
:102800009CC293D7C50093F7F703938707F81CA3DF
:102810007DB71C4154412A833387F640638EF610FE
:1028200088239306F00763E6A60085072320F300BC
:1028300082809306100C63FBA60A9306F00D63E6F4
:10284000A6028546630AD70E9833930600081376CE
:10285000070C631DD608F576938606F81A05369799
:102860003A9563EEA5048907D1B79306F00E63E9A4
:10287000A604894663F2E60C9833930600081376A3
:10288000070C6315D6069306000E6316D500930653
:10289000F00963FDE604B4231306000813F8060CE0
:1028A0006316C80437E6F1FF130606F83205B29640
:1028B000AA961A073385E6008D07E3F9A5F682800C
:1028C0009306400F63E4A6020D466377E60698334D
:1028D000130600081378070C631AC8001306000FCC
:1028E0006318C5009306F00863EAE6007D55C1BF92
:1028F0006316D5009306F008E3EAE6FEB02313085A
:1029000000089376060CE39306FF03C8370093781C
:10291000080CE39DD8FCB7E837FC938808F89316B9
:1029200025014698C296320736971A063305C70026
:102930009107E3FDA5EE61B7795582809307F00713
:10294000AA8663EDB7001C41584101456307F700B3
:102950001387170098C28CA3054582809307F07FE8
:1029600063E7B7021C415841054601451D8FE376D8
:10297000E6FE13D76500130707FC98A393F5F5034C
:102980001387270098C2938505F88CB3F1B7C16708
:1029900063FDF5021C415841094601451D8FE37E48
:1029A000E6FA13D7C500011798A313D7650013776C
:1029B000F703130707F898B393F5F5031387370068
:1029C00098C2938505F8ACA341BFB7071100014534
:1029D000E3F5F5F89C42D8420D461D8FE37FE6F6FD
:1029E00013D72501411798A313D7C5001377F70311
:1029F000130707F898B313D765001377F703130786
:102A000007F8B8A393F5F5031387470098C2938599
:102A100005F8ACB391B71C4154412A833387F64083
:102A2000638EF61088239306F00763E6A6008507F9
:102A30002320F30082809306100C63FBA60A930602
:102A4000F00D63E6A6028546630AD70E9833930617
:102A500000081376070C631DD608F576938606F8F2
:102A60001A0536973A9563EEA5048907D1B7930600
:102A7000F00E63E9A604894663F2E60C98339306E8
:102A800000081376070C6315D6069306000E63162E
:102A9000D5009306F00963FDE604B423130600088D
:102AA00013F8060C6316C80437E6F1FF130606F8A0
:102AB0003205B296AA961A073385E6008D07E3F928
:102AC000A5F682809306400F63E4A6020D46637765
:102AD000E6069833130600081378070C631AC8003B
:102AE0001306000F6318C5009306F00863EAE600BA
:102AF0007D55C1BF6316D5009306F008E3EAE6FEF4
:102B0000B023130800089376060CE39306FF03C86E
:102B100037009378080CE39DD8FCB7E837FC93881E
:102B200008F8931625014698C296320736971A067A
:102B30003305C7009107E3FDA5EE61B779558280A3
:102B40005C411841AA86416563F6A502014563020E
:102B5000F702C205058AC18101EA93978500A18128
:102B6000CD8F93950701C181930727009CC20EA3C7
:102B700005458280998F09480145E37CF8FE75750B
:102B800093D7A5001305057CAA97797593F5F53FB2
:102B9000130505C0AA95C207C205058AC183C18174
:102BA00011EE13968700A183D18F13968500A18122
:102BB0004D8EC20793150601C183C1811EA39307E1
:102BC00047009CC22EA36DB779714AD03709110016
:102BD00022D426D24ECE06D6B2843A8432C436C629
:102BE00001459309F9FF01C87D1463762501CE855F
:102BF00028001535CDBF2245B25022540259F24962
:102C0000058D925445618280797122D426D24ECEB0
:102C100052CC06D64AD0B689BA8446843EC442C64F
:102C2000370A11003289639FC9000145A24723A0DA
:102C30002401B2501CC0225492540259F249624AF3
:102C4000456182800C4263FA45012800EFF01FCFF6
:102C50001306490061F90545D1BF0945C1BF8989FE
:102C600085CD411122C42A845C40084106C68946AC
:102C7000898F014763FDF6000D4697D502009385C5
:102C8000E5A2EFD0EFD91C4005478D071CC0B2402C
:102C900022443A854101828005473A8582807971D4
:102CA00026D2AE8422D4B6852A84268552CC56CA32
:102CB00006D64AD04ECE5AC85EC662C466C2328AB2
:102CC000BA8A713F05C54D7B4979372CA0FC130B9F
:102CD0000B80930BF03F13090940854C130C0C40FB
:102CE00054401C406392F602014511A00545B250C4
:102CF000225492540259F249624AD24A424BB24B90
:102D0000224C924C456182808E233387650163ECAF
:102D1000EB0263809A059D8E0947E377D7FCBE23BB
:102D20003387270163E7EB02AA05E297BE9589493D
:102D30006361BA022685EFF0FFA04DD91C408609D9
:102D4000CE971CC071BFB387250163F4FB00854992
:102D5000C5B7094569BF011132C03706110026CA3F
:102D600036C2BA842C000A85014781467D1622CCE2
:102D700006CE46843EC442C61D378247F2409CC000
:102D8000A247D2441CC0624405618280411126C220
:102D9000AE8422C4B6852A8426854AC006C63289F6
:102DA0007D3D15E10545B24022449244024941016E
:102DB00082808C43636FB9002685EFF0BF987DD188
:102DC0001C4091071CC01C405840E314F7FE01450D
:102DD000D9BF0945C9BF011132C03706110036C23B
:102DE0002C000A8581467D1622CC26CA06CEBA84DE
:102DF00046843EC442C6593F8247F2409CC0A24727
:102E0000D2441CC0624405618280918995C94111F8
:102E10005C4126C2044122C406C6858F09472A8424
:102E2000637BF7000D46938581922685EFF0513C38
:102E300019E18D0404C0B2402244924441018280D1
:102E40008280011126CAAE84B68522CC4AC852C4FB
:102E500006CE4EC62A843289795A453F5C401840D6
:102E60006387E70283A90400D44063823603CA85DE
:102E70002285EFF01F9A63144501054529A8636474
:102E8000A902938749009CC023A0A900C1BF338534
:102E9000E7403335A000F2406244D2444249B2498F
:102EA000224A056182800945FDB7011132C037060B
:102EB000110036C22C000A8581467D1622CC26CA16
:102EC00006CEBA8446843EC442C6A53F8247F2403D
:102ED0009CC0A247D2441CC062440561828001119B
:102EE0002AC42EC62800BA8522CC26CA06CE328431
:102EF000B684213F014509C87D1463E7A400A68577
:102F00002800EFF01F91C5BFF24062442245D24431
:102F100005618280411122C4B6853284B706110052
:102F20003A8622850147FD1606C6553FB240018DFF
:102F300022444101828079714AD02E89B68522D4FB
:102F400026D24ECE52CC5EC606D656CA5AC8AA84DF
:102F5000B289368A3A84F95B4D3D03AB440083AABB
:102F60000400638B6A050327490083270900630572
:102F7000F704CE852685EFF0DF89AA85631F7501EA
:102F800013051400B250225492540259F249624A75
:102F9000D24A424BB24B4561828063EDB900528602
:102FA0004A85EFF0FFB955F923A0540123A264012B
:102FB0000545C9BF0945F9B70145E9B7011132C057
:102FC0003706110026CA36C2BA842C000A8501478A
:102FD00085467D1622CC06CE46843EC442C6A13F1D
:102FE0008247F2409CC0A247D2441CC062440561A3
:102FF000828079712AC42EC62800BA8522D426D2AE
:103000004ECE52CC06D64AD0B28436848149F53BA6
:10301000416A13891900636E990063129902C167AE
:10302000A2856364F4009385F7FF2800EFF06FFE3C
:1030300039A0A2852800EFF0CFFD637BA400B25039
:103040002254224592540259F249624A45618280D3
:10305000637345014E899309190065BF411122C46C
:10306000B6853284B70611003A8622850147FD16DF
:1030700006C64137B240018D224441018280397138
:103080004AD85AD062CC4D7B4979372CA0FC22DC3F
:1030900026DA52D456D25ECE06DE4ED63284B684BE
:1030A000BA8A468A3EC442C6130B0B80930BF03F8C
:1030B00013090940130C0C40631494020145A24704
:1030C00023A08A00F25062542320FA00D2544259BD
:1030D000B259225A925A025BF24B624C21618280B1
:1030E0000E20B387650163E7FB02B387844009477D
:1030F000E376F7FC3E203387270163E3EB02AA0562
:10310000E297BE9589492800EFF05F8301CD8609DB
:103110004E945DB7B387250163F4FB008549E5B79D
:10312000094571BF054561BF397156D2B70A110013
:1031300022DC26DA4AD84ED652D45AD05ECE06DEEB
:103140003684BA89428A468932C436C6BE84938B95
:10315000FAFF795BA2476301F402630F9A00DE85F0
:103160002800EFF05F8B63146501054511A86379B2
:10317000550388C09104F9BF3305F4403335A000EE
:10318000A247F250625423A0F90023209900B259BB
:10319000D2544259225A925A025BF24B21618280E8
:1031A0000945F9BF797152CC370A110022D44AD0AF
:1031B0004ECE56CA5AC806D626D232843A8932C46E
:1031C00036C68149930AFAFF416B9384190063EA7A
:1031D0002401631E9900C165FD152800EFF0BF832F
:1031E00039A0D6852800EFF01F83636E4501224584
:1031F000B2509254018D22540259F249624AD24A85
:10320000424B4561828063736501CE8493891400CB
:103210006DBF397156D2B70A110022DC26DA4AD8BE
:103220004ED65AD05ECE06DE52D43684BA89C284D7
:10323000468932C036C23EC442C6938BFAFF795BE0
:10324000024AA247630744056385F404DE850A85C4
:10325000EFF06FFCAA85630A650163FA5503054622
:103260002800EFF0FF8D69FD52C005458247F250FE
:10327000625423A0F900A247D254B2592320F90086
:10328000225A4259925A025BF24B216182800945CF
:10329000F1BF0145E1BF97C702009387E7691CC1F1
:1032A0006FD0FFF6411122C406C62A84ED3722856D
:1032B0002244B24041016F90210697C702009387D4
:1032C000675F1CC16FD0BFF4411122C406C62A84B7
:1032D000ED3722852244B24041016F90E10397C748
:1032E00002009387E75F1CC16FD07FF2411122C4B7
:1032F00006C62A84ED3722852244B24041016F90F0
:10330000A10197C70200938767601CC16FD03FF08F
:10331000411122C406C62A84ED3722852244B240D8
:1033200041016F80717F797166C283AC050022D440
:1033300026D22A8456CA5AC883AA850003AB450000
:10334000AE840546E68517F5FF1F1305E58706D60B
:103350004AD04ECE52CC5EC662C497F9FF1F938905
:10336000A986EFB0D03C83A7490003294400138508
:1033700041C3850723A2F900EFD03FFF0A052A9930
:1033800023203901854517F5FF1F1305A584EFB0EC
:10339000D05D97F9FF1F9389E98383A7490003292B
:1033A0004400138501C2850723A2F900EFD0FFFB7B
:1033B0000A052A99DA8523203901054617E5FF1FFA
:1033C0001305057FEFB0501F97E9FF1F9389497ED2
:1033D00083A74900032944001385C1C3850723A29D
:1033E000F900EFD09FF80A052A990546D6852320D3
:1033F000390117E5FF1F1305657CEFB0F02597E94C
:10340000FF1F9389A97B83A74900032944001385E3
:1034100081C3850723A2F900EFD03FF50A052A9959
:1034200023203901138A81AE09498329440097F783
:103430000200938727B5138541C42320FA00232275
:103440002A01EFD09FF20A05AA9923A0490197F714
:1034500002009387A7B483294400138A01AE138521
:1034600001C42320FA0023222A01EFD01FF00A050D
:10347000AA9923A0490197F702009387E7B483290B
:103480004400138A81AD138581C22320FA002322D0
:103490002A01EFD09FED0A05AA9923A0490185458D
:1034A00017E5FF1F1305C56FEFB0504717EAFF1F61
:1034B000130A0A6F83274A0083294400138541C2F7
:1034C00085072322FA00EFD05FEA0A05AA9923A014
:1034D000490183ABC400054617E5FF1F1305C56A04
:1034E000DE8503AA040183A9440117ECFF1F130C16
:1034F000AC69EF20715883274C004440138541CCC0
:1035000085072322FC00EFD05FE60A05AA9423A0DA
:103510008401854517E5FF1F1305C567EF209179E5
:1035200017ECFF1F130C0C6783274C0044401385D6
:1035300001CB85072322FC00EFD03FE30A05AA94C4
:10354000D28523A08401054617E5FF1F13054562B8
:10355000EF20F13A17ECFF1F130C8C6183274C000E
:1035600044401385C1CC85072322FC00EFD0FFDF48
:103570000A05AA940546CE8523A0840117E5FF1FFE
:103580001305C55FEF20B14117ECFF1F130C0C5F53
:1035900083274C004440138581CC85072322FC00FF
:1035A000EFD0BFDC0A05AA9423A0840197F702009C
:1035B0009387472C4440138C01AD138541CD2320C4
:1035C000FC0023222C01EFD05FDA0A05AA9423A085
:1035D000840197F702009387672B4440138C81ACDA
:1035E000138501CD2320FC0023222C01EFD0FFD72F
:1035F0000A05AA9423A0840197F702009387C72B9A
:103600004440138C01AC138581CB2320FC00232282
:103610002C01EFD09FD50A05AA94854523A08401EB
:1036200017E5FF1F1305C553EF20F16317E9FF1FCF
:1036300013090953832749004440138541CB85076B
:103640002322F900EFD07FD20A05AA9423A02401F7
:10365000138541C34444EFD05FD10A05AA9423A047
:1036600094011385C1C34444EFD03FD00A05AA9406
:1036700023A06401138581C34444EFD01FCF0A0502
:10368000AA9423A05401138541CC4444EFD0FFCD2C
:103690000A05AA9423A074011385C1CC4444EFD039
:1036A000DFCC0A05AA9423A044014044138581CCB1
:1036B000EFD0BFCB0A052A9423203401B250225404
:1036C00092540259F249624AD24A424BB24B224CBE
:1036D000924C456182806F1090366F2080429C41F1
:1036E000011126CA83A447FF4EC6AA891385140078
:1036F00006CE22CC4AC82E89EF8051602A842686C5
:10370000AA8581464A85EF10B015B307940023803F
:10371000070023A08900F24062444249B24926854D
:10372000D244056182809C41011126CA83A447FFCF
:103730004AC84EC69387140006CE22CC3707002015
:10374000AA892E891395270063E3E7007D55EF8052
:10375000F15A2A842686AA8581464A85EF20801D53
:103760009397240023A08900F240A297624423A0EB
:1037700007004249B2492685D24405618280BA8752
:103780003687B2862E864C4501456F60900A084503
:10379000397132833A86130790073AC246C036879A
:1037A000C2889A863E88B2872E86AA85014506DEA3
:1037B000EF60F051F2502161828008453971328307
:1037C0003A861307D0063AC246C03687C2889A8620
:1037D0003E88B2872E86AA85014506DEEF60304F0F
:1037E000F250216182800845397132833A8613078D
:1037F00070073AC246C03687C2889A863E88B2872A
:103800002E86AA85014506DEEF60704CF2502161DC
:1038100082800845397132833A86130740063AC2DE
:1038200046C03687C2889A863E88B2872E86AA8589
:10383000014506DEEF60B049F25021618280084503
:10384000397132833A86130740073AC246C0368739
:10385000C2889A863E88B2872E86AA85014506DEF2
:10386000EF60F046F250216182800C4501456F60A7
:1038700050455D71084532833A8618183AC258108F
:10388000A6C23AC0C6843687C28802C43E889A86D9
:10389000B2872E86AA850145A2C486C6464402D2B6
:1038A000EF60705192572ACC2ECE85E3C2571CC0D0
:1038B000D2575CC0E2571CC4F2575CC4B6402644E1
:1038C0006245F2459644616182809CC0C5BF5D71CE
:1038D000832888000845328332D60326C800832E09
:1038E0000800032E48002ED446CC32CE02C09308E6
:1038F00001013E882E86BA87AA85368701459A86B9
:1039000086C676C872CAEF70C02BB64061618280ED
:103910002E860C4901456F60D039328790410C49A1
:103920000145832646FF6F609026BA873687B286A8
:103930002E864C4501456F60A07008453971328371
:103940003A86130790073AC246C03687C2889A86DD
:103950003E88B2872E86AA85014506DEEF60703E5E
:10396000F250216182800845397132833A8613070B
:10397000D0063AC246C03687C2889A863E88B28749
:103980002E86AA85014506DEEF60B03BF25021612C
:1039900082800845397132833A86130770073AC22C
:1039A00046C03687C2889A863E88B2872E86AA8508
:1039B000014506DEEF60F038F25021618280084553
:1039C000397132833A86130740063AC246C03687B9
:1039D000C2889A863E88B2872E86AA85014506DE71
:1039E000EF603036F25021618280084539713283B0
:1039F0003A86130740073AC246C03687C2889A867D
:103A00003E88B2872E86AA85014506DEEF607033B8
:103A1000F250216182800C4501456F60F02A5D7192
:103A2000084532833A8618183AC25810A6C23AC0DE
:103A3000C6843687C28802C43E889A86B2872E869C
:103A4000AA850145A2C486C6464402D2EF60703EF4
:103A500092572ACC2ECE85E3C2571CC0D2575CC0E9
:103A6000E2571CC4F2575CC4B64026446245F24596
:103A70009644616182809CC0C5BF5D7183288800C7
:103A80000845328332D60326C800832E0800032E51
:103A900048002ED446CC32CE02C0930801013E88A5
:103AA0002E86BA87AA85368701459A8686C676C845
:103AB00072CAEF70C02EB640616182802E860C49BA
:103AC00001456F60901F328790410C490145832664
:103AD00046FF6F60100F1C4D011122CC26CA06CE86
:103AE0002A84AE8491C382979C40138547FF83A7A5
:103AF000C7FF63C30702EF20202908C09C4083A7AB
:103B000047FF5CC097070000938767BDF2401CCC5D
:103B10006244D2440561828001466C00EF20202877
:103B2000E9BF1C4D011122CC26CA06CE2A84AE84E0
:103B300091C382979C40138547FF83A7C7FF63C348
:103B40000702EF10F01E08C09C4083A747FF5CC02F
:103B500097070000938767B8F2401CCC6244D244B8
:103B60000561828001466C00EF10F01DE9BF08413D
:103B70005C411387F7FF58C105476395E7001C4177
:103B8000DC4382878280411122C406C697C70200A7
:103B9000938747471CC11C492A84310523A6070087
:103BA000F93722852244B24041016FE0DFA3411181
:103BB00022C406C62A84C13F22852244B240410164
:103BC0006F808175411122C406C697C70200938792
:103BD00067471CC11C492A84310523A6070023AC72
:103BE000070023A0070223A407025137228522449D
:103BF000B24041016FE0CFDC411122C406C62A84E5
:103C0000D13722852244B24041016F80E1704111D9
:103C100022C406C697C70200938707461CC11C49E9
:103C20002A84310523A6070023AC070023A007023E
:103C300023A40702EFF0BFF322852244B2404101E2
:103C40006FE0EFDB411122C406C62A84C937228502
:103C50002244B24041016F80216C411122C406C64A
:103C600097C70200938787472A841CC14105EFF05C
:103C70001FF022852244B24041016FA070524111D1
:103C800022C406C62A84D13F22852244B240410183
:103C90006F808168411122C406C697C702009387CE
:103CA000A7451CC11C492A84310523A60700EFF053
:103CB0001FEC22852244B24041016FE05FA3411115
:103CC00022C406C62A84F93722852244B240410123
:103CD0006F808164411122C406C697C70200938792
:103CE000A7451CC11C492A84310523A6070023A02F
:103CF000070223A4070223A80702EFF05FE722854B
:103D00002244B24041016FE02FEF411122C406C6A8
:103D10002A84C93722852244B24041016F80C15FA5
:103D2000411122C406C697C70200938727441CC1CD
:103D30001C492A84310523A6070023A0070223A4D7
:103D4000070223A80702EFF09FE222852244B24037
:103D500041016FE04FEE411122C406C62A84C937E3
:103D600022852244B24041016F80015B411122C48F
:103D700006C697C702009387A7452A841CC1410540
:103D8000EFF0FFDE22852244B24041016F10B1788E
:103D9000411122C406C62A84D13F22852244B24062
:103DA00041016F806157411122C406C697C70200C6
:103DB000938787272A841CC13105EFF05FDB2285BA
:103DC0002244B24041016FA07041411122C406C695
:103DD0002A84D13F22852244B24041016F80C153E1
:103DE000411122C406C697C702009387272C2A8454
:103DF0001CC12105EFF0BFD722852244B24041010A
:103E00006FA0302B411122C406C62A84D13F2285DF
:103E10002244B24041016F802150411122C406C6A4
:103E200097C702009387072A2A841CC12105EFF057
:103E30001FD422852244B24041016FA07028411155
:103E400022C406C62A84D13F22852244B2404101C1
:103E50006F80814C411122C406C697C70200938728
:103E6000E72B2A841CC13105EFF07FD02285224444
:103E7000B24041016F10F16D411122C406C62A847F
:103E8000EFF05FFD22852244B24041016F80C148BE
:103E9000411122C406C697C70200938767302A845F
:103EA0001CC12105EFF0BFCC22852244B240410164
:103EB0006F109157411122C406C62A84EFF05FFDAE
:103EC00022852244B24041016F800145411122C444
:103ED00006C697C702009387272E2A841CC1210596
:103EE000EFF0FFC822852244B24041016F10B15467
:103EF000411122C406C62A84EFF05FFD22852244C8
:103F0000B24041016F804141411122C406C697C7AA
:103F100002009387A72D2A841CC12105EFF03FC51D
:103F200022852244B24041016FA0301C411122C4BD
:103F300006C62A84EFF05FFD22852244B24041018B
:103F40006F80813D411122C406C697C70200938746
:103F5000672C2A841CC12105EFF07FC122852244F1
:103F6000B24041016F10D14F411122C406C62A84CC
:103F7000EFF05FFD22852244B24041016F80C139DC
:103F80001C4D91C3828782801971A2DCC000A6DA21
:103F90002ED4AA84C285228586DECAD8CED6D2D4B3
:103FA0003689BA893E8A32D682CEEFF09FB722C0D8
:103FB0002256B2568C44930801015288CE874A8714
:103FC000014502C802CA02CC02CEEF60903F2ADE51
:103FD0002285AEC0EFF0DFFAF65066547255864582
:103FE000D6544659B659265A096182801971A2DC05
:103FF000C000A6DA2ED4AA84C285228586DECAD85D
:10400000CED6D2D43689BA893E8A32D682CEEFF065
:104010009FAC22C02256B2568C44930801015288AC
:10402000CE874A87014502C802CA02CC02CEEF60A1
:1040300010572ADE2285AEC0EFF09FF4F65066548A
:1040400072558645D6544659B659265A096182801A
:1040500001112E8506CE22CC26CA3284AE84EFA072
:10406000906E2302A4022685EFA0506E854723029E
:10407000F406A302A402A685680023240400232AD0
:104080000400232E0400EFA0D06C6C001305840004
:10409000EFF0EFE448C46800EF10601AA6856800EE
:1040A000EFA0B06C6C0013054401EFF04FE308CCB7
:1040B0006800EF10C018A6856800EFA0906C6C0037
:1040C0001305C401EFF0AFE108D06800EF1020172E
:1040D000F2406244D2440561828001112E8506CEF1
:1040E00022CC26CA3284AE84EF20811A48D026859D
:1040F000EF20611A85472302F41208D4A6856800D0
:1041000023240400232A0400232E0400EF20011995
:104110006C0013058400EFF08FDC48C46800EF10DA
:104120000012A6856800EF20E1186C001305440119
:10413000EFF06FDF08CC6800EF10B01CA6856800B8
:10414000EF20C1186C001305C401EFF0CFDD08D0DB
:104150006800EF10101BF2406244D2440561828077
:104160002E85B2853686BA863E876FB060022E8570
:10417000B2853686BA863E876F202136011122CC61
:10418000680032843686BA8606CEEFB0C0006C0076
:104190002285EFF01F996800EF10600AF240624438
:1041A00005618280011122CC680032843686BA868D
:1041B00006CEEF20E1326C002285EFF0DF9168003F
:1041C000EF103014F24062440561828001112E85A7
:1041D00006CE22CC26CA3284AE84EFA0904908B81D
:1041E0002685EFA0704928A82685EFA0504F854767
:1041F000A301F40448D4A685680023240400232ADC
:104200000400232E040023220402EFA050476C0078
:1042100013058400EFF0AFCC48C46800EF10200213
:10422000A6856800EFA030476C0013054401EFF04D
:104230000FCB08CC6800EF108000A6856800EFA0C7
:1042400010476C001305C401EFF06FC908D0680077
:10425000EF00F07EA6856800EFA0F0466C00130525
:104260004402EFF0CFC708D46800EF00507D2685E8
:10427000EFA0504708D82685EFA0704748D8F240F5
:104280006244D2440561828001112E8506CE22CC83
:1042900026CA3284AE84EFA0D03308B82685EFA0BA
:1042A000B03328A82685EFA090398547A301F404F0
:1042B00048D4A685680023240400232A0400232E62
:1042C000040023220402EFA090316C001305840047
:1042D000EFF0EFC048C46800EF007076A685680074
:1042E000EFA070316C0013054401EFF04FBF08CC14
:1042F0006800EF00D074A6856800EFA050316C0014
:104300001305C401EFF0AFBD08D06800EF003073B3
:10431000A6856800EFA030316C0013054402EFF071
:104320000FBC08D46800EF0090712685EFA0903193
:1043300008D82685EFA0B03148D8F2406244D24474
:104340000561828001112E8506CE22CC26CA3284D8
:10435000AE84EF10716648C82685EF10516608CC10
:104360002685EF10316C85472306F40648D8A685CC
:10437000680023240400232E0400232204022326A1
:104380000402EF1031646C0013058400EFF02FB5C8
:1043900048C46800EF00B06AA6856800EF10116499
:1043A0006C001305C401EFF00FB808D06800EF10DF
:1043B0004075A6856800EF10F1636C001305440298
:1043C000EFF06FB608D46800EF10A073A685680000
:1043D000EF10D1636C001305C402EFF0CFB408D81E
:1043E0006800EF1000722685EF10316408DC268526
:1043F000EF10516448DCF2406244D244056182808F
:1044000001112E8506CE22CC26CA3284AE84EF104E
:10441000B15048C82685EF10915008CC2685EF1082
:10442000715685472306F40648D8A68568002324DC
:104430000400232E04002322040223260402EF108A
:10444000714E6C0013058400EFF06FA948C468003A
:10445000EF00F05EA6856800EF10514E6C0013056A
:10446000C401EFF04FAC08D06800EF108069A6855A
:104470006800EF10314E6C0013054402EFF0AFAA54
:1044800008D46800EF10E067A6856800EF10114EB1
:104490006C001305C402EFF00FA908D86800EF10F4
:1044A00040662685EF10714E08DC2685EF10914E90
:1044B00048DCF2406244D24405618280011122CC82
:1044C00068002E84B2853686340006CE26CABA84A9
:1044D000EF10E03326866C002285EFA090462A84F8
:1044E0006800EF00D055F24022856244D244056155
:1044F0008280011122CC68002E84B2853686340079
:1045000006CE26CABA84EF10803026866C0022853B
:10451000EF10D1772A846800EF007052F2402285B4
:104520006244D24405618280397122DC26DA4AD89D
:10453000AE843284C285468636892808540806DE51
:104540004ED63EC6BA89EF10802C32473C08CE8644
:104550004A86A6856808EFA0303F6C082285EFF0F8
:104560004FDC6808EF00B04D2808EF00504DF250C6
:104570006254D2544259B25921618280397122DC8D
:1045800026DA4AD8AE843284C2854686368928081F
:10459000540806DE4ED63EC6BA89EF10302D32479B
:1045A0003C08CE864A86A6856808EF10916E6C0896
:1045B0002285EFF04FD26808EF10A0542808EF10C2
:1045C0004054F2506254D2544259B259216182800F
:1045D0002E85B2856FA010392E85B2856F10316D92
:1045E0002E856FA0702C2E856F10B160011136C61C
:1045F000834641022E853EC293054007C287468806
:104600008258638AB60263EDD50093054006638B3A
:10461000B602BA86B2851247324605616FA0502DA8
:10462000930570076387B602BA86B2851247324691
:1046300005616FA0502DBA86B285124732460561DA
:104640006FA0F026BA86B2851247324605616FA088
:104650007027BA86B2851247324605616FA0F027EF
:10466000011136C6834641022E853EC2930540079E
:10467000C28746888258638AB60263EDD5009305E7
:104680004006638BB602BA86B28512473246056190
:104690006F10B15A930570076387B602BA86B28568
:1046A0001247324605616F10B15ABA86B285124779
:1046B000324605616F105154BA86B28512473246B0
:1046C00005616F10D154BA86B28512473246056132
:1046D0006F1051555D7136D6D646A6C23ED286C6FB
:1046E000A2C4C287E64446882E85C64881CE2644A9
:1046F000B6C8B6409644BA86B28512573256616142
:104700006FA0405B97D6FF1F9386464E36DAB28580
:10471000BA8632561257401822C046CEEFA0E05A51
:10472000F2482AD42ED683A7080089E7A2852685D9
:10473000EFF02FBFA25722853EDCB2573EDEEF00DE
:104740001030B64026446255F2559644616182802D
:104750005D7136D6D646A6C23ED286C6A2C4C287F0
:10476000E64446882E85C64881CE2644B6C8B64063
:104770009644BA86B2851257325661616F1071073E
:1047800097D6FF1F9386864736DAB285BA863256A9
:104790001257401822C046CEEF101107F2482AD413
:1047A0002ED683A7080089E7A2852685EFF0AFB251
:1047B000A25722853EDCB2573EDEEF108034B64071
:1047C00026446255F255964461618280411122C4AB
:1047D000F9562E841386C1929385419126C206C64E
:1047E0004AC0AA84EF70D13309C90041B240228582
:1047F00022449244024941018280938741C3631A53
:10480000F4065145EF70F14C2A8413058006EF70D1
:10481000514C97B702009387E7E72A891CC1AA8504
:104820002322050023240500232605002308050074
:10483000232A0500232C0500232E05002320050232
:10484000231205022302050601462285EFA0206EF1
:10485000DC4044C4232824018507DCC097B702004C
:104860009387477A1CC04A86A6850145EF50606B46
:10487000B5BF938701C26313F4024145EF707145E0
:1048800081452A84EFA0700EDC4044C48507DCC05B
:1048900097B70200938747791CC089BF938781C26D
:1048A0006311F4023145EF70D142DC402A842322A7
:1048B00005008507DCC004C597C7020093870793EE
:1048C000E1BF938741C46311F4023145EF70714039
:1048D000DC402A84232205008507DCC004C597B785
:1048E00002009387A77C4DBF938701C46311F40234
:1048F0003145EF70113EDC402A84232205008507F4
:10490000DCC004C597B702009387C77B71B7938754
:1049100081C36314F4085145EF70B13B2A84130539
:104920004004EF70113B97B70200938767CA2A894A
:104930001CC1AA8523220500232405002326050087
:104940002318050023090500232A0500232C050050
:10495000232E05002320050223220502232405021D
:104960002326050223280502232A0502A3010504A4
:1049700001462285EFA0404EDC4044C42328240198
:104980008507DCC097B702009387C76B1CC04A86B7
:10499000A6850145EF50A07091BD9387C1C36314F4
:1049A000F4085145EF70F1322A8413054004EF708A
:1049B000513297B702009387A7C22A891CC1AA85E2
:1049C00023220500232405002326050023180500C3
:1049D00023090500232A0500232C0500232E0500AA
:1049E0002320050223220502232405022326050293
:1049F00023280502232A0502A30105040146228576
:104A0000EFA0803BDC4044C4232824018507DCC0A0
:104A100097B70200938747661CC04A86A685014562
:104A2000EF50A073E1B3938741C26312F402514582
:104A3000EF70312A81452A84EFA0406EDC4004C823
:104A40008507DCC097B7020093874769B1B59387A4
:104A500041CC631CF4065145EF70B1272A8413053D
:104A60008012EF70112797B702009387A7C32A8996
:104A70001CC1AA8523220500232405002326050046
:104A800023080500232A0500232C0500232E0500FA
:104A900023200502232205022324050223020512F6
:104AA00001462285EF10417DDC4044C423282401C7
:104AB0008507DCC097B70200938707641CC04A864D
:104AC000A6850145EF50804E15B3938701CB631245
:104AD000F4024145EF70F11F81452A84EF10911DCA
:104AE000DC4044C48507DCC097B7020093870763A6
:104AF00065B3938781CB6311F4023145EF70711D6B
:104B0000DC402A84232205008507DCC004C597B752
:104B100002009387277049B3938741CD6311F40254
:104B20003145EF70111BDC402A84232205008507E4
:104B3000DCC004C597B7020093878766B1BB938733
:104B400001CD6311F4023145EF70B118DC402A84C5
:104B5000232205008507DCC004C597B702009387B0
:104B6000A7651DBB938781CC6316F4085145EF7090
:104B700051162A8413050007EF70B11597B702008C
:104B8000938707A72A891CC1AA852322050023240D
:104B900005002326050023080500232A0500232CF1
:104BA0000500232E050023200502232205022324CD
:104BB00005022326050223280502232A0502232CA9
:104BC0000502232E05022306050601462285EF1065
:104BD000015DDC4044C4232824018507DCC097B76D
:104BE0000200938767551CC04A86A6850145EF5091
:104BF0008062EDBE9387C1CC6316F4085145EF7017
:104C0000510D2A8413050007EF70B10C97B702000D
:104C10009387079F2A891CC1AA8523220500232484
:104C200005002326050023080500232A0500232C60
:104C30000500232E0500232005022322050223243C
:104C400005022326050223280502232A0502232C18
:104C50000502232E05022306050601462285EF10D4
:104C6000014ADC4044C4232824018507DCC097B7EF
:104C700002009387A74F1CC04A86A6850145EF50C6
:104C80004065ADB6938741CB6312F4025145EF7096
:104C9000510481452A84EF10017DDC4004C885075A
:104CA000DCC097B702009387A752FDB617B5020084
:104CB0001305C5D5EF90C0389C4D011106CE22CC0E
:104CC00099E717B50200130565D7EF906037D0411B
:104CD0008C4174002A84EF009033F24022856244B4
:104CE000056182805D71A2C42E84C64536D686C613
:104CF00032D4BA8603AE08003E8703A34800C287B9
:104D000003A5C80003A888009DC948183EC63AC438
:104D100036C2EFF07FFAB24722479246A25532568A
:104D2000130841032285EF90D07E2ADC48182EDE3E
:104D30003923B64026446255F25561618280B285BE
:104D4000325642CC2ACE13080101228572C81ACAF3
:104D5000EF9010792ADC2EDEE9BFCC45797122D4A0
:104D600036872A84B2860145500006D602CEEF501F
:104D7000002E4C002285EFF03FF44800EFF04FA0EA
:104D8000B250228522544561828008451D713283CC
:104D9000A2CC3A8640183810A6CA3AC0C6843687D4
:104DA000C28822C43E8802C2B2879A862E86AA850D
:104DB000014586CE82C602D4EF50E07FA2572ACCAE
:104DC0002ECE85EBA2856810EFF01FEF06556C1014
:104DD000F12C6810AD21E24722853ED6F2473ED83D
:104DE000EFF00F9AF64066443255C255D64425611D
:104DF00082809CC0CDB703A807008C4979718328B5
:104E000048FF22D4BA872A8436870145B2865000EB
:104E100006D602CEEF50205E4C002285EFF0DFE98F
:104E20004800EFF0EF95B250228522544561828010
:104E30009C4D011106CE22CC99E717B5020013054F
:104E4000E5BFEF90E01FD0418C4174002A84EF1041
:104E5000E021F24022856244056182805D71A2C436
:104E60002E84C64536D686C632D4BA8603AE08002E
:104E70003E8703A34800C28703A5C80003A8880093
:104E800085CD48183EC63AC436C2EFF07FFAB24725
:104E900022479246A2553256130841032285EF104D
:104EA000211B2ADC48182EDEEF00B045B640264410
:104EB0006255F25561618280B285325642CC2ACE6B
:104EC00013080101228572C81ACAEF1041152ADCA5
:104ED0002EDEE9BFCC45797122D436872A84B2868A
:104EE0000145500006D602CEEF50E0184C00228556
:104EF000EFF01FF44800EFF0AF88B2502285225443
:104F00004561828008451D713283A2CC3A864018E3
:104F10003810A6CA3AC0C6843687C28822C43E88E2
:104F200002C2B2879A862E86AA85014586CE82C69F
:104F300002D4EF500070A2572ACC2ECE95EBA2855A
:104F40006810EFF0FFEE06556C10EF00902368102C
:104F5000EF00303BE24722853ED6F2473ED8EFF0E5
:104F60002F82F64066443255C255D6442561828070
:104F70009CC0CDB703A807008C497971832848FFEE
:104F800022D4BA872A8436870145B286500006D6D5
:104F900002CEEF50204B4C002285EFF07FE9480015
:104FA000EFE01FFEB2502285225445618280B28715
:104FB00089C52E868C236FD0312201458280AA8735
:104FC0009C432E8583A647FF63FCB6004111B28542
:104FD0002A8617B502001305E52506C6EF9040079F
:104FE0008280B7070040F117BE951C4183A747FF99
:104FF0009D8D63F7C5004111368506C6EF90C0044C
:1050000082801C4163E8F50003A747FFBA9733B5D8
:10501000B7008280054582800548631506019C2102
:105020001CA1828019C26FB0AF9F828005486315B2
:1050300006019C211CA1828019C26FB0CF9F828083
:10504000AE8785462A87B2856394D70010A38280F5
:1050500081C73E866FB08FA082800D8E6FF0DFFB20
:1050600001114AC84EC63289AE8917B6020013062E
:10507000E61FB68522CC26CA2A84B68406CEEFF077
:105080001FF40C4003A445FF058C637389004A8418
:1050900011C42286A6954E85EFF01FF8F2402285B6
:1050A0006244D2444249B249056182801C4103A74F
:1050B000C7FF6354070023AE07FE98418326C7FF4E
:1050C00063D40600232E07FE18C19CC182801C41B8
:1050D000328503A747FF6364E5007D558280B38670
:1050E000A7009422E39CB6FE0505F5B797D7FF1FEE
:1050F000938707AF6308F500232405000CC12E95A4
:105100002306050082804111B707004006C622C46D
:10511000F11763F8A70017B5020013056516EF80B5
:10512000B0722A8463EDA5001305D400EF70613AD4
:10513000B24040C12244232405004101828093975C
:1051400015006373F5003E841307D40185671305CA
:10515000D400E3FDE7FCE3FB85FC3E94FD177D8F67
:10516000B7070040198CF117E3F087FC3E846DBF50
:1051700001114AC806CE22CC26CA4EC617D9FF1F37
:105180001309C9A615C1AE8981452A84EFF0BFF77E
:105190001309C500AA84A2854A854E86EFF05FEA0E
:1051A000A2852685EFF09FF4F2406244D244B249D2
:1051B0004A85424905618280411122C42A842E8594
:1051C000B285368606C6EFF0BFFAB24008C0224468
:1051D00041018280011152C4338AA54026CA4AC8BF
:1051E000AA842E895285814506CE22CC4EC6EFF088
:1051F0009FF19309C5002A844A86A6854E85EFF063
:10520000DFE52285D285EFF07FEEF2406244D244A2
:105210004249224A4E85B249056182806F70C10FB2
:1052200017D7FF1F1307C79B630AE50018459306AE
:10523000F7FF14C56344E0006FF05FFE8280084111
:1052400001116C00511506CEEFF09FFDF240056193
:1052500082801C41011122CC2A84138547FF83A739
:10526000C7FF06CE635EF0006C00EFF07FFB97D7C0
:10527000FF1F9387A797F2401CC06244056182809C
:105280006244F240814505616FF05FE6397126DACC
:10529000AA8408414ED622DC832945FF5AD02E84A9
:1052A000330BB600832585FF52D4338AC6404AD8D3
:1052B0004E9A06DE56D25ECE3689B389694163E6E0
:1052C00045018327C5FF6352F00470005285EFF05B
:1052D0009FE3AA8A930BC50011C48C4022865E8589
:1052E000EFF09FD3638B09008C4031043305240118
:1052F0004E86DA955695EFF03FD288406C005115F6
:10530000EFF01FF223A0740119A0639109028840F5
:105310006254F250D2544259B259925A025BF24B43
:10532000D285225A511521616FF05FDCE381C6FE00
:1053300033898600B30565014E864A95EFF01FCF8D
:10534000F9B71C4103A747FF15C783A7C7FF411142
:1053500022C406C62A846357F0008146014681456F
:10536000EFF0DFF21C40B24022447D5723AEE7FE4F
:105370004101828082801C4183A7C7FF63C407006C
:105380006FF03FFC8280411122C406C62A84EFF0F0
:105390009FFE0840B240224441018280411126C252
:1053A000B28417B60200130626EF22C44AC02A842C
:1053B0002E8906C6EFF0BFC01C40AA8583A747FF11
:1053C0003386274163F3C400268622858146EFF0A9
:1053D000FFEBB2402285224492440249410182807F
:1053E000011122CC4EC63684B2894AC897B6020053
:1053F0009386C6EB2E892286CE8526CA52C406CE57
:10540000AA843A8AEFF0FFBDA2864E86CA85268519
:10541000EFF0DFE719C488405286A2854A95EFF085
:105420003FC2F24062444249B249224A2685D244F0
:10543000056182801C41411122C43384F5403287CA
:10544000A2858546014626C206C6AA84EFF05FF90A
:105450008840FD57B240232EF5FE22952244924407
:1054600041018280011122CC4EC63A84B689BA86A7
:1054700026CA4AC806CEAA842E89EFF03FE119C495
:1054800088402286CE854A95EFF01FB9F2406244EB
:105490004249B2492685D2440561828001114EC637
:1054A0008329050052C44AC803AA49FF2E8997B62A
:1054B00002009386A6E1D28522CC26CA06CE2A8493
:1054C000B284EFF01FB2CA852285EFF09FB309E5E1
:1054D00083A7C9FF6350F00222856244F240B249BB
:1054E0002687CA86D24442495286224A81450561AE
:1054F0006FF05FF7B307394163E597022686CA85E7
:105500004E85EFF07FB10840A6855115EFF01FBE24
:10551000F24022856244D2444249B249224A05619E
:105520008280F5D32686CA854E85EFF03FB0E1BF75
:1055300097C7FF1F9387C76A6305F5001C4585075A
:105540001CC531058280411122C42A841C40328549
:105550002E864C403E9526C24AC006C6EFF0BFBA22
:105560001040AA841309C50011C69305C4004A85DA
:10557000EFF09FAA0C402685EFF05FB7B2402244BF
:1055800092444A85024941018280011122CC2A8439
:10559000084106CE26CA832785FF63E7B7000327A5
:1055A000C5FF6352E002BE85032645FF51153386D1
:1055B000C5406C00EFF03FF9AA8408406C0051151B
:1055C000EFF01FC604C0F2406244D24405618280FD
:1055D0009C41011122CC03A647FF06CE26CA4AC829
:1055E0002A8429C21C412E8983A447FF03A787FF71
:1055F000B2946366970083A7C7FF6358F000A6853F
:10560000228532C6EFF07FF832461C408325090020
:1056100003A547FF3E95EFF03FA00840A685511532
:10562000EFF0DFACF24022856244D244424905618A
:105630008280011122CC06CE26CA4AC84EC652C468
:105640002A8429CEAE8497A602009386A6E18145DE
:10565000B289EFF01F99032A040003294AFF832728
:105660008AFF4E9963E627018327CAFF635BF00038
:10567000A6852285EFF0FF981DC9CA852285EFF027
:10568000DFF01C40A6854E8603A547FF3E95EFF050
:10569000BF980840CA855115EFF05FA5F2402285FA
:1056A0006244D2444249B249224A05618280CA8595
:1056B0002285EFF09FED1C40B3844441BE94D1B7E6
:1056C000011122CC06CE26CA4AC84EC62A84A1C9D8
:1056D000AE84B28997A602009386C6D82E868145ED
:1056E000EFF03F901C4003A947FF03A787FF2699CF
:1056F0006366270183A7C7FF6356F000CA8522852A
:10570000EFF0BFE81C40A6854E8603A547FF3E95F7
:10571000EFF01F930840CA855115EFF03F9DF2400E
:1057200022856244D2444249B249056182801C41CB
:1057300001114AC803A947FF22CC4EC62E84B28964
:1057400097B60200938606BA2E86CA8526CA06CE6A
:10575000AA84EFF01F89637E8900B3052441624467
:10576000F24042494E862685B249D24405616FF027
:105770003FF5637D2401A2856244F2404249B2496B
:105780002685D2447D5605616FF05FC1F2406244C8
:10579000D2444249B2490561828001466FF03FF927
:1057A0001841011126CA832747FFAE8422CC938576
:1057B0001700832787FF06CE2A8463E6B700832776
:1057C000C7FF6357F00022852EC6EFF01FDCB245FD
:1057D0001C4003A747FFBA9784A308406244F240E5
:1057E000D244511505616FF07F90630DB50019C16A
:1057F0006FF05F9E411117B50200130525B006C674
:10580000EF80100417C5FF1F1305453E828041112C
:1058100022C42A842E85B285AA953686814606C67C
:10582000EFF0BFFCB24008C0224441018280411128
:1058300022C42A842E85B2853686814606C6EFF0BC
:10584000DFFAB24008C0224441018280011122CC1B
:1058500026CA2E8406CEAA84FD5501C8228532C6EA
:10586000EFF021673246B305A40022858146EFF0B0
:10587000DFF7F240624488C0D24405618280B2877B
:1058800089C52E868C436F10125F01458280AA87DE
:105890009C432E8583A647FF63FCB6004111B28569
:1058A0002A8617B502001305E59806C6EF80407AF0
:1058B0008280B7070010F917BE951C4183A747FFE8
:1058C0009D8D63F7C5004111368506C6EF80C07710
:1058D00082801C4163E9F50003A747FF0A07BA97D6
:1058E00033B5B700828005458280054863150601FF
:1058F0009C411CC1828019C26F1052598280054898
:10590000631506019C411CC1828019C26F10725838
:105910008280AE8785462A87B2856394D70010C3FC
:10592000828081C73E866F10325782800D8E098635
:105930006FF0BFFB01114AC84EC63289AE8917B657
:1059400002001306A692B68522CC26CA2A84B68403
:1059500006CEEFF0DFF30C4003A445FF058C637324
:1059600089004A8419C48A042286A6954E85EFF0E0
:10597000DFF7F24022856244D2444249B2490561D0
:1059800082801C4103A7C7FF6354070023AE07FEB4
:1059900098418326C7FF63D40600232E07FE18C153
:1059A0009CC1828097C7FF1F938787246309F500F6
:1059B0000CC18A05232405002E952326050082802C
:1059C0004111B707001006C622C4F91763F8A700F3
:1059D00017B502001305C58AEF8000672A8463EEBD
:1059E000A500130544000A05EF60B12EB24040C186
:1059F000224423240500410182809397150063739C
:105A0000F5003E84130544000A0513070501856768
:105A1000E3FCE7FCE3FA85FC9386F7FF758F998F2B
:105A200089833E94B7070010F917E3FC87FA3E8498
:105A30004DBF01114AC806CE22CC26CA4EC617C990
:105A4000FF1F1309A91B15C1AE8981452A84EFF0F8
:105A50003FF71309C500AA84A2854A854E86EFF058
:105A60005FEBA2852685EFF0FFF3F2406244D2445B
:105A7000B2494A85424905618280411122C42A8483
:105A80002E85B285368606C6EFF0BFFAB24008C052
:105A9000224441018280011126CAB384A540898431
:105AA0004AC84EC62A89AE892685814506CE22CCB3
:105AB00052C4EFF0FFF0130AC5002A844E86CA854F
:105AC0005285EFF0BFE62285A685EFF0BFEDF240EC
:105AD0006244D2444249B2495285224A05618280D9
